{
  "_format": "hh-sol-artifact-1",
  "contractName": "MockBlergs",
  "sourceName": "contracts/MockBlergs.sol",
  "abi": [
    {
      "inputs": [],
      "stateMutability": "nonpayable",
      "type": "constructor"
    },
    {
      "anonymous": false,
      "inputs": [
        {
          "indexed": true,
          "internalType": "address",
          "name": "owner",
          "type": "address"
        },
        {
          "indexed": true,
          "internalType": "address",
          "name": "approved",
          "type": "address"
        },
        {
          "indexed": true,
          "internalType": "uint256",
          "name": "tokenId",
          "type": "uint256"
        }
      ],
      "name": "Approval",
      "type": "event"
    },
    {
      "anonymous": false,
      "inputs": [
        {
          "indexed": true,
          "internalType": "address",
          "name": "owner",
          "type": "address"
        },
        {
          "indexed": true,
          "internalType": "address",
          "name": "operator",
          "type": "address"
        },
        {
          "indexed": false,
          "internalType": "bool",
          "name": "approved",
          "type": "bool"
        }
      ],
      "name": "ApprovalForAll",
      "type": "event"
    },
    {
      "anonymous": false,
      "inputs": [
        {
          "indexed": true,
          "internalType": "address",
          "name": "from",
          "type": "address"
        },
        {
          "indexed": true,
          "internalType": "address",
          "name": "to",
          "type": "address"
        },
        {
          "indexed": true,
          "internalType": "uint256",
          "name": "tokenId",
          "type": "uint256"
        }
      ],
      "name": "Transfer",
      "type": "event"
    },
    {
      "inputs": [
        {
          "internalType": "address",
          "name": "to",
          "type": "address"
        },
        {
          "internalType": "uint256",
          "name": "tokenId",
          "type": "uint256"
        }
      ],
      "name": "approve",
      "outputs": [],
      "stateMutability": "nonpayable",
      "type": "function"
    },
    {
      "inputs": [
        {
          "internalType": "address",
          "name": "owner",
          "type": "address"
        }
      ],
      "name": "balanceOf",
      "outputs": [
        {
          "internalType": "uint256",
          "name": "",
          "type": "uint256"
        }
      ],
      "stateMutability": "view",
      "type": "function"
    },
    {
      "inputs": [
        {
          "internalType": "uint256",
          "name": "tokenId",
          "type": "uint256"
        }
      ],
      "name": "getApproved",
      "outputs": [
        {
          "internalType": "address",
          "name": "",
          "type": "address"
        }
      ],
      "stateMutability": "view",
      "type": "function"
    },
    {
      "inputs": [
        {
          "internalType": "address",
          "name": "owner",
          "type": "address"
        },
        {
          "internalType": "address",
          "name": "operator",
          "type": "address"
        }
      ],
      "name": "isApprovedForAll",
      "outputs": [
        {
          "internalType": "bool",
          "name": "",
          "type": "bool"
        }
      ],
      "stateMutability": "view",
      "type": "function"
    },
    {
      "inputs": [],
      "name": "mint",
      "outputs": [],
      "stateMutability": "nonpayable",
      "type": "function"
    },
    {
      "inputs": [],
      "name": "name",
      "outputs": [
        {
          "internalType": "string",
          "name": "",
          "type": "string"
        }
      ],
      "stateMutability": "view",
      "type": "function"
    },
    {
      "inputs": [
        {
          "internalType": "uint256",
          "name": "tokenId",
          "type": "uint256"
        }
      ],
      "name": "ownerOf",
      "outputs": [
        {
          "internalType": "address",
          "name": "",
          "type": "address"
        }
      ],
      "stateMutability": "view",
      "type": "function"
    },
    {
      "inputs": [
        {
          "internalType": "address",
          "name": "from",
          "type": "address"
        },
        {
          "internalType": "address",
          "name": "to",
          "type": "address"
        },
        {
          "internalType": "uint256",
          "name": "tokenId",
          "type": "uint256"
        }
      ],
      "name": "safeTransferFrom",
      "outputs": [],
      "stateMutability": "nonpayable",
      "type": "function"
    },
    {
      "inputs": [
        {
          "internalType": "address",
          "name": "from",
          "type": "address"
        },
        {
          "internalType": "address",
          "name": "to",
          "type": "address"
        },
        {
          "internalType": "uint256",
          "name": "tokenId",
          "type": "uint256"
        },
        {
          "internalType": "bytes",
          "name": "data",
          "type": "bytes"
        }
      ],
      "name": "safeTransferFrom",
      "outputs": [],
      "stateMutability": "nonpayable",
      "type": "function"
    },
    {
      "inputs": [
        {
          "internalType": "address",
          "name": "operator",
          "type": "address"
        },
        {
          "internalType": "bool",
          "name": "approved",
          "type": "bool"
        }
      ],
      "name": "setApprovalForAll",
      "outputs": [],
      "stateMutability": "nonpayable",
      "type": "function"
    },
    {
      "inputs": [
        {
          "internalType": "bytes4",
          "name": "interfaceId",
          "type": "bytes4"
        }
      ],
      "name": "supportsInterface",
      "outputs": [
        {
          "internalType": "bool",
          "name": "",
          "type": "bool"
        }
      ],
      "stateMutability": "view",
      "type": "function"
    },
    {
      "inputs": [],
      "name": "symbol",
      "outputs": [
        {
          "internalType": "string",
          "name": "",
          "type": "string"
        }
      ],
      "stateMutability": "view",
      "type": "function"
    },
    {
      "inputs": [
        {
          "internalType": "uint256",
          "name": "index",
          "type": "uint256"
        }
      ],
      "name": "tokenByIndex",
      "outputs": [
        {
          "internalType": "uint256",
          "name": "",
          "type": "uint256"
        }
      ],
      "stateMutability": "view",
      "type": "function"
    },
    {
      "inputs": [
        {
          "internalType": "address",
          "name": "owner",
          "type": "address"
        },
        {
          "internalType": "uint256",
          "name": "index",
          "type": "uint256"
        }
      ],
      "name": "tokenOfOwnerByIndex",
      "outputs": [
        {
          "internalType": "uint256",
          "name": "",
          "type": "uint256"
        }
      ],
      "stateMutability": "view",
      "type": "function"
    },
    {
      "inputs": [
        {
          "internalType": "uint256",
          "name": "tokenId",
          "type": "uint256"
        }
      ],
      "name": "tokenURI",
      "outputs": [
        {
          "internalType": "string",
          "name": "",
          "type": "string"
        }
      ],
      "stateMutability": "view",
      "type": "function"
    },
    {
      "inputs": [],
      "name": "totalSupply",
      "outputs": [
        {
          "internalType": "uint256",
          "name": "",
          "type": "uint256"
        }
      ],
      "stateMutability": "view",
      "type": "function"
    },
    {
      "inputs": [
        {
          "internalType": "address",
          "name": "from",
          "type": "address"
        },
        {
          "internalType": "address",
          "name": "to",
          "type": "address"
        },
        {
          "internalType": "uint256",
          "name": "tokenId",
          "type": "uint256"
        }
      ],
      "name": "transferFrom",
      "outputs": [],
      "stateMutability": "nonpayable",
      "type": "function"
    }
  ],
  "bytecode": "0x60806040523480156200001157600080fd5b5060405180604001604052806002815260200161109b60f21b815250604051806040016040528060018152602001602160f91b815250816000908162000058919062000189565b50600162000067828262000189565b50505062000255565b634e487b7160e01b600052604160045260246000fd5b634e487b7160e01b600052602260045260246000fd5b600281046001821680620000b157607f821691505b602082108103620000c657620000c662000086565b50919050565b6000620000dd620000da8381565b90565b92915050565b620000ee83620000cc565b81546008840282811b60001990911b908116901990911617825550505050565b60006200011d818484620000e3565b505050565b818110156200014157620001386000826200010e565b60010162000122565b5050565b601f8211156200011d576000818152602090206020601f850104810160208510156200016e5750805b620001826020601f86010483018262000122565b5050505050565b81516001600160401b03811115620001a557620001a562000070565b620001b182546200009c565b620001be82828562000145565b506020601f821160018114620001f65760008315620001dd5750848201515b600019600885021c198116600285021785555062000182565b600084815260208120601f198516915b8281101562000228578785015182556020948501946001909201910162000206565b5084821015620002465783870151600019601f87166008021c191681555b50505050600202600101905550565b611cc480620002656000396000f3fe608060405234801561001057600080fd5b506004361061011b5760003560e01c806342842e0e116100b257806395d89b4111610081578063b88d4fde11610066578063b88d4fde14610239578063c87b56dd1461024c578063e985e9c51461025f57600080fd5b806395d89b411461021e578063a22cb4651461022657600080fd5b806342842e0e146101d25780634f6ccce7146101e55780636352211e146101f857806370a082311461020b57600080fd5b80631249c58b116100ee5780631249c58b1461019357806318160ddd1461019b57806323b872dd146101ac5780632f745c59146101bf57600080fd5b806301ffc9a71461012057806306fdde0314610149578063081812fc1461015e578063095ea7b31461017e575b600080fd5b61013361012e366004611267565b61029b565b6040516101409190611292565b60405180910390f35b6101516102ac565b60405161014091906112f6565b61017161016c366004611318565b61033e565b6040516101409190611353565b61019161018c366004611375565b610365565b005b6101916103f3565b6008545b60405161014091906113b8565b6101916101ba3660046113c6565b61041b565b61019f6101cd366004611375565b61044c565b6101916101e03660046113c6565b61049e565b61019f6101f3366004611318565b6104b9565b610171610206366004611318565b610507565b61019f610219366004611416565b61053c565b610151610580565b61019161023436600461144a565b61058f565b610191610247366004611570565b61059e565b61015161025a366004611318565b6105d6565b61013361026d3660046115ef565b6001600160a01b03918216600090815260056020908152604080832093909416825291909152205460ff1690565b60006102a68261064a565b92915050565b6060600080546102bb90611638565b80601f01602080910402602001604051908101604052809291908181526020018280546102e790611638565b80156103345780601f1061030957610100808354040283529160200191610334565b820191906000526020600020905b81548152906001019060200180831161031757829003601f168201915b5050505050905090565b6000610349826106a0565b506000908152600460205260409020546001600160a01b031690565b600061037082610507565b9050806001600160a01b0316836001600160a01b0316036103ac5760405162461bcd60e51b81526004016103a3906116be565b60405180910390fd5b336001600160a01b03821614806103c857506103c8813361026d565b6103e45760405162461bcd60e51b81526004016103a390611726565b6103ee83836106d4565b505050565b60006103fe600a5490565b905061040a338261074f565b610418600a80546001019055565b50565b6104253382610769565b6104415760405162461bcd60e51b81526004016103a39061178e565b6103ee8383836107e8565b60006104578361053c565b82106104755760405162461bcd60e51b81526004016103a3906117f6565b506001600160a01b03919091166000908152600660209081526040808320938352929052205490565b6103ee8383836040518060200160405280600081525061059e565b60006104c460085490565b82106104e25760405162461bcd60e51b81526004016103a39061185e565b600882815481106104f5576104f561186e565b90600052602060002001549050919050565b6000818152600260205260408120546001600160a01b0316806102a65760405162461bcd60e51b81526004016103a3906118b8565b60006001600160a01b0382166105645760405162461bcd60e51b81526004016103a390611920565b506001600160a01b031660009081526003602052604090205490565b6060600180546102bb90611638565b61059a33838361092a565b5050565b6105a83383610769565b6105c45760405162461bcd60e51b81526004016103a39061178e565b6105d0848484846109ea565b50505050565b60606105e1826106a0565b60006105f860408051602081019091526000815290565b905060008151116106185760405180602001604052806000815250610643565b8061062284610a1d565b604051602001610633929190611952565b6040516020818303038152906040525b9392505050565b60007fffffffff0000000000000000000000000000000000000000000000000000000082167f780e9d630000000000000000000000000000000000000000000000000000000014806102a657506102a682610abe565b6000818152600260205260409020546001600160a01b03166104185760405162461bcd60e51b81526004016103a3906118b8565b6000818152600460205260409020805473ffffffffffffffffffffffffffffffffffffffff19166001600160a01b038416908117909155819061071682610507565b6001600160a01b03167f8c5be1e5ebec7d5bd14f71427d1e84f3dd0314c0f7b2291e5b200ac8c7c3b92560405160405180910390a45050565b61059a828260405180602001604052806000815250610ba1565b60008061077583610507565b9050806001600160a01b0316846001600160a01b031614806107bc57506001600160a01b0380821660009081526005602090815260408083209388168352929052205460ff165b806107e05750836001600160a01b03166107d58461033e565b6001600160a01b0316145b949350505050565b826001600160a01b03166107fb82610507565b6001600160a01b0316146108215760405162461bcd60e51b81526004016103a3906119c0565b6001600160a01b0382166108475760405162461bcd60e51b81526004016103a390611a28565b6108548383836001610bd4565b826001600160a01b031661086782610507565b6001600160a01b03161461088d5760405162461bcd60e51b81526004016103a3906119c0565b6000818152600460209081526040808320805473ffffffffffffffffffffffffffffffffffffffff199081169091556001600160a01b0387811680865260038552838620805460001901905590871680865283862080546001019055868652600290945282852080549092168417909155905184937fddf252ad1be2c89b69c2b068fc378daa952ba7f163c4a11628f55a4df523b3ef91a4505050565b816001600160a01b0316836001600160a01b03160361095b5760405162461bcd60e51b81526004016103a390611a6a565b6001600160a01b038381166000818152600560209081526040808320948716808452949091529081902080547fffffffffffffffffffffffffffffffffffffffffffffffffffffffffffffff0016851515179055517f17307eab39ab6107e8899845ad3d59bd9653f200f220920489ca2b5937696c31906109dd908590611292565b60405180910390a3505050565b6109f58484846107e8565b610a0184848484610be0565b6105d05760405162461bcd60e51b81526004016103a390611ad2565b60606000610a2a83610d2b565b600101905060008167ffffffffffffffff811115610a4a57610a4a61147d565b6040519080825280601f01601f191660200182016040528015610a74576020820181803683370190505b5090508181016020015b600019017f3031323334353637383961626364656600000000000000000000000000000000600a86061a8153600a8504945084610a7e575b509392505050565b60007fffffffff0000000000000000000000000000000000000000000000000000000082167f80ac58cd000000000000000000000000000000000000000000000000000000001480610b5157507fffffffff0000000000000000000000000000000000000000000000000000000082167f5b5e139f00000000000000000000000000000000000000000000000000000000145b806102a657507f01ffc9a7000000000000000000000000000000000000000000000000000000007fffffffff000000000000000000000000000000000000000000000000000000008316146102a6565b610bab8383610e0d565b610bb86000848484610be0565b6103ee5760405162461bcd60e51b81526004016103a390611ad2565b6105d084848484610f23565b60006001600160a01b0384163b15610d20576040517f150b7a020000000000000000000000000000000000000000000000000000000081526001600160a01b0385169063150b7a0290610c3d903390899088908890600401611ae2565b6020604051808303816000875af1925050508015610c78575060408051601f3d908101601f19168201909252610c7591810190611b31565b60015b610cd5573d808015610ca6576040519150601f19603f3d011682016040523d82523d6000602084013e610cab565b606091505b508051600003610ccd5760405162461bcd60e51b81526004016103a390611ad2565b805181602001fd5b7fffffffff00000000000000000000000000000000000000000000000000000000167f150b7a02000000000000000000000000000000000000000000000000000000001490506107e0565b506001949350505050565b6000807a184f03e93ff9f4daa797ed6e38ed64bf6a1f0100000000000000008310610d74577a184f03e93ff9f4daa797ed6e38ed64bf6a1f010000000000000000830492506040015b6d04ee2d6d415b85acef81000000008310610da0576d04ee2d6d415b85acef8100000000830492506020015b662386f26fc100008310610dbe57662386f26fc10000830492506010015b6305f5e1008310610dd6576305f5e100830492506008015b6127108310610dea57612710830492506004015b60648310610dfc576064830492506002015b600a83106102a65760010192915050565b6001600160a01b038216610e335760405162461bcd60e51b81526004016103a390611b82565b6000818152600260205260409020546001600160a01b031615610e685760405162461bcd60e51b81526004016103a390611bc4565b610e76600083836001610bd4565b6000818152600260205260409020546001600160a01b031615610eab5760405162461bcd60e51b81526004016103a390611bc4565b6001600160a01b0382166000818152600360209081526040808320805460010190558483526002909152808220805473ffffffffffffffffffffffffffffffffffffffff19168417905551839291907fddf252ad1be2c89b69c2b068fc378daa952ba7f163c4a11628f55a4df523b3ef908290a45050565b610f2f84848484611015565b6001811115610f505760405162461bcd60e51b81526004016103a390611c2c565b816001600160a01b038516610fac57610fa781600880546000838152600960205260408120829055600182018355919091527ff3f7a9fe364faab93b216da50a3214154f22a0a2b415b23a84c8169e8b636ee30155565b610fcf565b836001600160a01b0316856001600160a01b031614610fcf57610fcf858261109d565b6001600160a01b038416610feb57610fe68161113a565b61100e565b846001600160a01b0316846001600160a01b03161461100e5761100e84826111e9565b5050505050565b60018111156105d0576001600160a01b0384161561105b576001600160a01b03841660009081526003602052604081208054839290611055908490611c52565b90915550505b6001600160a01b038316156105d0576001600160a01b03831660009081526003602052604081208054839290611092908490611c65565b909155505050505050565b600060016110aa8461053c565b6110b49190611c52565b600083815260076020526040902054909150808214611107576001600160a01b03841660009081526006602090815260408083208584528252808320548484528184208190558352600790915290208190555b5060009182526007602090815260408084208490556001600160a01b039094168352600681528383209183525290812055565b60085460009061114c90600190611c52565b600083815260096020526040812054600880549394509092849081106111745761117461186e565b9060005260206000200154905080600883815481106111955761119561186e565b60009182526020808320909101929092558281526009909152604080822084905585825281205560088054806111cd576111cd611c78565b6001900381819060005260206000200160009055905550505050565b60006111f48361053c565b6001600160a01b039093166000908152600660209081526040808320868452825280832085905593825260079052919091209190915550565b7fffffffff0000000000000000000000000000000000000000000000000000000081165b811461041857600080fd5b80356102a68161122d565b60006020828403121561127c5761127c600080fd5b60006107e0848461125c565b8015155b82525050565b602081016102a68284611288565b60005b838110156112bb5781810151838201526020016112a3565b50506000910152565b60006112ce825190565b8084526020840193506112e58185602086016112a0565b601f01601f19169290920192915050565b6020808252810161064381846112c4565b80611251565b80356102a681611307565b60006020828403121561132d5761132d600080fd5b60006107e0848461130d565b60006001600160a01b0382166102a6565b61128c81611339565b602081016102a6828461134a565b61125181611339565b80356102a681611361565b6000806040838503121561138b5761138b600080fd5b6000611397858561136a565b92505060206113a88582860161130d565b9150509250929050565b8061128c565b602081016102a682846113b2565b6000806000606084860312156113de576113de600080fd5b60006113ea868661136a565b93505060206113fb8682870161136a565b925050604061140c8682870161130d565b9150509250925092565b60006020828403121561142b5761142b600080fd5b60006107e0848461136a565b801515611251565b80356102a681611437565b6000806040838503121561146057611460600080fd5b600061146c858561136a565b92505060206113a88582860161143f565b634e487b7160e01b600052604160045260246000fd5b601f19601f830116810181811067ffffffffffffffff821117156114b9576114b961147d565b6040525050565b60006114cb60405190565b90506114d78282611493565b919050565b600067ffffffffffffffff8211156114f6576114f661147d565b601f19601f83011660200192915050565b82818337506000910152565b6000611526611521846114dc565b6114c0565b90508281526020810184848401111561154157611541600080fd5b610ab6848285611507565b600082601f83011261156057611560600080fd5b81356107e0848260208601611513565b6000806000806080858703121561158957611589600080fd5b6000611595878761136a565b94505060206115a68782880161136a565b93505060406115b78782880161130d565b925050606085013567ffffffffffffffff8111156115d7576115d7600080fd5b6115e38782880161154c565b91505092959194509250565b6000806040838503121561160557611605600080fd5b6000611611858561136a565b92505060206113a88582860161136a565b634e487b7160e01b600052602260045260246000fd5b60028104600182168061164c57607f821691505b60208210810361165e5761165e611622565b50919050565b60218152602081017f4552433732313a20617070726f76616c20746f2063757272656e74206f776e6581527f7200000000000000000000000000000000000000000000000000000000000000602082015290505b60400190565b602080825281016102a681611664565b603d8152602081017f4552433732313a20617070726f76652063616c6c6572206973206e6f7420746f81527f6b656e206f776e6572206f7220617070726f76656420666f7220616c6c000000602082015290506116b8565b602080825281016102a6816116ce565b602d8152602081017f4552433732313a2063616c6c6572206973206e6f7420746f6b656e206f776e6581527f72206f7220617070726f76656400000000000000000000000000000000000000602082015290506116b8565b602080825281016102a681611736565b602b8152602081017f455243373231456e756d657261626c653a206f776e657220696e646578206f7581527f74206f6620626f756e6473000000000000000000000000000000000000000000602082015290506116b8565b602080825281016102a68161179e565b602c8152602081017f455243373231456e756d657261626c653a20676c6f62616c20696e646578206f81527f7574206f6620626f756e64730000000000000000000000000000000000000000602082015290506116b8565b602080825281016102a681611806565b634e487b7160e01b600052603260045260246000fd5b60188152602081017f4552433732313a20696e76616c696420746f6b656e2049440000000000000000815290505b60200190565b602080825281016102a681611884565b60298152602081017f4552433732313a2061646472657373207a65726f206973206e6f74206120766181527f6c6964206f776e65720000000000000000000000000000000000000000000000602082015290506116b8565b602080825281016102a6816118c8565b600061193a825190565b6119488185602086016112a0565b9290920192915050565b61195c8184611930565b90506106438183611930565b60258152602081017f4552433732313a207472616e736665722066726f6d20696e636f72726563742081527f6f776e6572000000000000000000000000000000000000000000000000000000602082015290506116b8565b602080825281016102a681611968565b60248152602081017f4552433732313a207472616e7366657220746f20746865207a65726f2061646481527f7265737300000000000000000000000000000000000000000000000000000000602082015290506116b8565b602080825281016102a6816119d0565b60198152602081017f4552433732313a20617070726f766520746f2063616c6c657200000000000000815290506118b2565b602080825281016102a681611a38565b60328152602081017f4552433732313a207472616e7366657220746f206e6f6e20455243373231526581527f63656976657220696d706c656d656e7465720000000000000000000000000000602082015290506116b8565b602080825281016102a681611a7a565b60808101611af0828761134a565b611afd602083018661134a565b611b0a60408301856113b2565b8181036060830152611b1c81846112c4565b9695505050505050565b80516102a68161122d565b600060208284031215611b4657611b46600080fd5b60006107e08484611b26565b60208082527f4552433732313a206d696e7420746f20746865207a65726f206164647265737391019081526118b2565b602080825281016102a681611b52565b601c8152602081017f4552433732313a20746f6b656e20616c7265616479206d696e74656400000000815290506118b2565b602080825281016102a681611b92565b60358152602081017f455243373231456e756d657261626c653a20636f6e736563757469766520747281527f616e7366657273206e6f7420737570706f727465640000000000000000000000602082015290506116b8565b602080825281016102a681611bd4565b634e487b7160e01b600052601160045260246000fd5b818103818111156102a6576102a6611c3c565b808201808211156102a6576102a6611c3c565b634e487b7160e01b600052603160045260246000fdfea264697066735822122074743b739b36a200d0e34978426a73026edd73ba172d67bdf518afba68f992a364736f6c63430008110033",
  "linkReferences": {},
  "deployedLinkReferences": {}
}